:101C00000EC01DC01CC01BC01AC019C018C017C010
:101C100016C015C014C013C012C011C010C01124CA
:101C20001FBECFE5D2E0DEBFCDBF10E0A0E6B0E042
:101C300001C01D92A43BB107E1F73FD18EC1E0CFB7
:101C4000EF92FF920F931F93CF93DF9390916000D9
:101C500080E020916100822B70E001C0762F9C0112
:101C6000207CE32EF22EA4E7B0E02A1B3B0BF90107
:101C7000EA0FFB1FE491ED9340E0A43BB407B9F7F2
:101C8000482F4F19672F50E00CC0D901AC58BF4FF7
:101C9000E62FF0E0E05AFF4FE281EC936F5F603196
:101CA00049F0262F271BFA01E20FF11D9F01E034B6
:101CB000F1055CF3EF2DFE2DC4E7D0E014D003E076
:101CC00007BFE89540E40FD00990199001E007BFE5
:101CD000E89532964250B9F706D0EF2DFE2D05E07B
:101CE00007BFE89506C01091370011701130D9F385
:101CF00008951124860F911D603108F4AFCF81E063
:101D0000DF91CF911F910F91FF90EF900895F09187
:101D10006000E0E080916100E82BA2E6B0E08491F1
:101D20008D93319680E0A237B807C9F781E0089516
:101D300080538A3030F08151863010F4865F0895E8
:101D40008FEF08951F93CF93DF93C0E090D0182FAB
:101D50008A3091F0EDDF8F3F71F0EC2FE695F0E0E7
:101D6000E05AFF4F90819295907F982B9083CF5FA0
:101D7000C83261F701C0C0E0D0E02196D595C79583
:101D800002C075D0182F1A30E1F780E590E560E0C9
:101D90009E012250310907C0FA01E05AFF4F4081ED
:101DA000840F911D6F5F462F50E042175307A4F335
:101DB000492F5527F901E05AFF4F208130E04217A3
:101DC000530759F49927FE01E15AFF4F208130E073
:101DD0008217930711F48C2F01C080E0DF91CF911F
:101DE0001F9108958F708A3010F4805D01C0895C66
:101DF0004EC0BF92CF92DF92EF92FF920F931F934C
:101E0000CF93DF93B82E70E6E72E70E0F72E8701B0
:101E1000C0E5D0E50CC06801F80181918F01C80FC1
:101E2000D11D82958F70DEDFF6018081DBDF802F90
:101E30008E198B1580F38D2F82958F70D3DF8D2FA8
:101E4000D1DFCE0164E0969587956A95E1F7CADF08
:101E50008C2FDF91CF911F910F91FF90EF90DF902A
:101E6000CF90BF90BFCFBD98C59808950895BD98F5
:101E7000C5982FE380E8B599FECF2150F1F72CE209
:101E8000B59908948795C8F72A95F1F70895CF93E7
:101E9000DF93C59ABD9AC59808B2E3E0CCE2DC2F87
:101EA000DA95F1F780FB05F8E695879508BAB9F75A
:101EB000BD98C598DF91CF910895CF93DF93C39AD2
:101EC000BB9886B3C39883FD3CC0CDDFC0E1D1E0B1
:101ED000CEDF8F3389F4CBDF8A3011F08DE21BC067
:101EE000C0936000C0936100D0936200D093630000
:101EF0008BE2CDDF84E01CC0813221F4B8DF8A3070
:101F000069F71EC0873549F41DDF843139F798DE43
:101F1000882321F38BE2BBDF0CC0823571F412DF22
:101F20008430E1F6F4DE8823C9F28BE2B0DF82E18F
:101F300060DF8AE0ACDFCCCF9ADF8A30E9F7CECF22
:101F400095DFEFEFFBE18491EEEFFBE19491E92F58
:0E1F5000F82F0994DF91CF910895F894FFCFF8
:0400000300001C00DD
:00000001FF
